{
  "_format": "hh-sol-artifact-1",
  "contractName": "EVoting",
  "sourceName": "contracts/EVoting.sol",
  "abi": [
    {
      "inputs": [],
      "stateMutability": "nonpayable",
      "type": "constructor"
    },
    {
      "inputs": [
        {
          "internalType": "string",
          "name": "_city",
          "type": "string"
        },
        {
          "internalType": "string",
          "name": "_name",
          "type": "string"
        },
        {
          "internalType": "string",
          "name": "_party",
          "type": "string"
        }
      ],
      "name": "addCandidate",
      "outputs": [],
      "stateMutability": "nonpayable",
      "type": "function"
    },
    {
      "inputs": [
        {
          "internalType": "string",
          "name": "",
          "type": "string"
        }
      ],
      "name": "cityToBallot",
      "outputs": [
        {
          "internalType": "string",
          "name": "city",
          "type": "string"
        },
        {
          "internalType": "address",
          "name": "admin",
          "type": "address"
        },
        {
          "internalType": "bool",
          "name": "isOpen",
          "type": "bool"
        },
        {
          "internalType": "uint256",
          "name": "candidateCount",
          "type": "uint256"
        }
      ],
      "stateMutability": "view",
      "type": "function"
    },
    {
      "inputs": [
        {
          "internalType": "string",
          "name": "_city",
          "type": "string"
        }
      ],
      "name": "closeBallot",
      "outputs": [],
      "stateMutability": "nonpayable",
      "type": "function"
    },
    {
      "inputs": [
        {
          "internalType": "string",
          "name": "_city",
          "type": "string"
        }
      ],
      "name": "createBallot",
      "outputs": [],
      "stateMutability": "nonpayable",
      "type": "function"
    },
    {
      "inputs": [
        {
          "internalType": "string",
          "name": "_city",
          "type": "string"
        }
      ],
      "name": "deleteBallot",
      "outputs": [],
      "stateMutability": "nonpayable",
      "type": "function"
    },
    {
      "inputs": [
        {
          "internalType": "string",
          "name": "_city",
          "type": "string"
        },
        {
          "internalType": "uint256",
          "name": "_candidateIndex",
          "type": "uint256"
        }
      ],
      "name": "deleteCandidate",
      "outputs": [],
      "stateMutability": "nonpayable",
      "type": "function"
    },
    {
      "inputs": [
        {
          "internalType": "string",
          "name": "_city",
          "type": "string"
        }
      ],
      "name": "getBallotDetails",
      "outputs": [
        {
          "internalType": "string",
          "name": "city",
          "type": "string"
        },
        {
          "internalType": "address",
          "name": "admin",
          "type": "address"
        },
        {
          "internalType": "bool",
          "name": "isOpen",
          "type": "bool"
        },
        {
          "internalType": "uint256",
          "name": "candidateCount",
          "type": "uint256"
        }
      ],
      "stateMutability": "view",
      "type": "function"
    },
    {
      "inputs": [
        {
          "internalType": "string",
          "name": "_city",
          "type": "string"
        },
        {
          "internalType": "uint256",
          "name": "_candidateIndex",
          "type": "uint256"
        }
      ],
      "name": "getCandidateDetails",
      "outputs": [
        {
          "internalType": "string",
          "name": "name",
          "type": "string"
        },
        {
          "internalType": "string",
          "name": "party",
          "type": "string"
        },
        {
          "internalType": "uint256",
          "name": "voteCount",
          "type": "uint256"
        }
      ],
      "stateMutability": "view",
      "type": "function"
    },
    {
      "inputs": [
        {
          "internalType": "string",
          "name": "_city",
          "type": "string"
        }
      ],
      "name": "getCandidatesInCity",
      "outputs": [
        {
          "internalType": "string[]",
          "name": "candidateNames",
          "type": "string[]"
        },
        {
          "internalType": "string[]",
          "name": "candidateParties",
          "type": "string[]"
        }
      ],
      "stateMutability": "view",
      "type": "function"
    },
    {
      "inputs": [
        {
          "internalType": "string",
          "name": "_city",
          "type": "string"
        }
      ],
      "name": "getResult",
      "outputs": [
        {
          "internalType": "string",
          "name": "winnerName",
          "type": "string"
        },
        {
          "internalType": "string",
          "name": "winnerParty",
          "type": "string"
        }
      ],
      "stateMutability": "view",
      "type": "function"
    },
    {
      "inputs": [
        {
          "internalType": "string",
          "name": "_voterId",
          "type": "string"
        },
        {
          "internalType": "string",
          "name": "_city",
          "type": "string"
        },
        {
          "internalType": "uint256",
          "name": "_candidateIndex",
          "type": "uint256"
        }
      ],
      "name": "vote",
      "outputs": [],
      "stateMutability": "nonpayable",
      "type": "function"
    },
    {
      "inputs": [
        {
          "internalType": "string",
          "name": "",
          "type": "string"
        }
      ],
      "name": "voterToCity",
      "outputs": [
        {
          "internalType": "string",
          "name": "",
          "type": "string"
        }
      ],
      "stateMutability": "view",
      "type": "function"
    }
  ],
  "bytecode": "0x608060405234801561001057600080fd5b5061249a806100206000396000f3fe608060405234801561001057600080fd5b50600436106100b45760003560e01c80638634602e116100715780638634602e1461018c578063ad71f8dc146101bf578063ad85a1ba146101db578063beaef8871461020b578063ced7651a1461023e578063ec42480c1461025a576100b4565b806346a86576146100b9578063492c9a1e146100d5578063498cc70d146100f1578063769841ed146101225780637a4c96ad1461013e5780637af192641461015a575b600080fd5b6100d360048036038101906100ce9190611818565b61028b565b005b6100ef60048036038101906100ea9190611818565b6103e3565b005b61010b60048036038101906101069190611818565b610476565b6040516101199291906118e9565b60405180910390f35b61013c60048036038101906101379190611956565b6106a5565b005b610158600480360381019061015391906119b2565b61086c565b005b610174600480360381019061016f9190611956565b610ae2565b60405161018393929190611a4c565b60405180910390f35b6101a660048036038101906101a19190611818565b610c9b565b6040516101b69493929190611aed565b60405180910390f35b6101d960048036038101906101d49190611b39565b610d9f565b005b6101f560048036038101906101f09190611818565b610ead565b6040516102029190611be0565b60405180910390f35b61022560048036038101906102209190611818565b610f63565b6040516102359493929190611aed565b60405180910390f35b61025860048036038101906102539190611818565b61105e565b005b610274600480360381019061026f9190611818565b6112d1565b604051610282929190611d0e565b60405180910390f35b600073ffffffffffffffffffffffffffffffffffffffff166000826040516102b39190611d81565b908152602001604051809103902060010160009054906101000a900473ffffffffffffffffffffffffffffffffffffffff1673ffffffffffffffffffffffffffffffffffffffff161461033b576040517f08c379a000000000000000000000000000000000000000000000000000000000815260040161033290611e0a565b60405180910390fd5b6000808260405161034c9190611d81565b908152602001604051809103902090508181600001908051906020019061037492919061154e565b50338160010160006101000a81548173ffffffffffffffffffffffffffffffffffffffff021916908373ffffffffffffffffffffffffffffffffffffffff16021790555060018160010160146101000a81548160ff021916908315150217905550600081600201819055505050565b600080826040516103f49190611d81565b908152602001604051809103902090508060010160149054906101000a900460ff16610455576040517f08c379a000000000000000000000000000000000000000000000000000000000815260040161044c90611e76565b60405180910390fd5b60008160010160146101000a81548160ff0219169083151502179055505050565b6060806000808460405161048a9190611d81565b908152602001604051809103902090508060010160149054906101000a900460ff16156104ec576040517f08c379a00000000000000000000000000000000000000000000000000000000081526004016104e390611f08565b60405180910390fd5b60008060005b8360020154811015610550578284600301600083815260200190815260200160002060020154111561053d578360030160008281526020019081526020016000206002015492508091505b808061054890611f57565b9150506104f2565b5082600301600082815260200190815260200160002060000183600301600083815260200190815260200160002060010181805461058d90611fcf565b80601f01602080910402602001604051908101604052809291908181526020018280546105b990611fcf565b80156106065780601f106105db57610100808354040283529160200191610606565b820191906000526020600020905b8154815290600101906020018083116105e957829003601f168201915b5050505050915080805461061990611fcf565b80601f016020809104026020016040519081016040528092919081815260200182805461064590611fcf565b80156106925780601f1061066757610100808354040283529160200191610692565b820191906000526020600020905b81548152906001019060200180831161067557829003601f168201915b5050505050905094509450505050915091565b600080836040516106b69190611d81565b908152602001604051809103902090508060020154821061070c576040517f08c379a00000000000000000000000000000000000000000000000000000000081526004016107039061204d565b60405180910390fd5b8060010160149054906101000a900460ff1661075d576040517f08c379a0000000000000000000000000000000000000000000000000000000008152600401610754906120b9565b60405180910390fd5b6001816002015461076e91906120d9565b8210156107fd578060030160006001836002015461078c91906120d9565b815260200190815260200160002081600301600084815260200190815260200160002060008201816000019080546107c390611fcf565b6107ce9291906115d4565b5060018201816001019080546107e390611fcf565b6107ee9291906115d4565b50600282015481600201559050505b8060030160006001836002015461081491906120d9565b8152602001908152602001600020600080820160006108339190611661565b6001820160006108439190611661565b600282016000905550508060020160008154809291906108629061210d565b9190505550505050565b6000808360405161087d9190611d81565b90815260200160405180910390209050806002015482106108d3576040517f08c379a00000000000000000000000000000000000000000000000000000000081526004016108ca9061204d565b60405180910390fd5b8060010160149054906101000a900460ff16610924576040517f08c379a000000000000000000000000000000000000000000000000000000000815260040161091b906120b9565b60405180910390fd5b80600401846040516109369190611d81565b908152602001604051809103902060009054906101000a900460ff1615610992576040517f08c379a0000000000000000000000000000000000000000000000000000000008152600401610989906121a9565b60405180910390fd5b60006001856040516109a49190611d81565b908152602001604051809103902080546109bd90611fcf565b90501480610a03575082805190602001206001856040516109de9190611d81565b90815260200160405180910390206040516109f99190612268565b6040518091039020145b610a42576040517f08c379a0000000000000000000000000000000000000000000000000000000008152600401610a39906122f1565b60405180910390fd5b8060030160008381526020019081526020016000206002016000815480929190610a6b90611f57565b919050555060018160040185604051610a849190611d81565b908152602001604051809103902060006101000a81548160ff02191690831515021790555082600185604051610aba9190611d81565b90815260200160405180910390209080519060200190610adb92919061154e565b5050505050565b606080600080600086604051610af89190611d81565b9081526020016040518091039020905080600201548510610b4e576040517f08c379a0000000000000000000000000000000000000000000000000000000008152600401610b459061204d565b60405180910390fd5b6000816003016000878152602001908152602001600020905080600001816001018260020154828054610b8090611fcf565b80601f0160208091040260200160405190810160405280929190818152602001828054610bac90611fcf565b8015610bf95780601f10610bce57610100808354040283529160200191610bf9565b820191906000526020600020905b815481529060010190602001808311610bdc57829003601f168201915b50505050509250818054610c0c90611fcf565b80601f0160208091040260200160405190810160405280929190818152602001828054610c3890611fcf565b8015610c855780601f10610c5a57610100808354040283529160200191610c85565b820191906000526020600020905b815481529060010190602001808311610c6857829003601f168201915b5050505050915094509450945050509250925092565b6060600080600080600086604051610cb39190611d81565b90815260200160405180910390209050806000018160010160009054906101000a900473ffffffffffffffffffffffffffffffffffffffff168260010160149054906101000a900460ff168360020154838054610d0f90611fcf565b80601f0160208091040260200160405190810160405280929190818152602001828054610d3b90611fcf565b8015610d885780601f10610d5d57610100808354040283529160200191610d88565b820191906000526020600020905b815481529060010190602001808311610d6b57829003601f168201915b505050505093509450945094509450509193509193565b60008084604051610db09190611d81565b908152602001604051809103902090508060010160149054906101000a900460ff16610e11576040517f08c379a0000000000000000000000000000000000000000000000000000000008152600401610e08906120b9565b60405180910390fd5b60405180606001604052808481526020018381526020016000815250816003016000836002015481526020019081526020016000206000820151816000019080519060200190610e6292919061154e565b506020820151816001019080519060200190610e7f92919061154e565b5060408201518160020155905050806002016000815480929190610ea290611f57565b919050555050505050565b6001818051602081018201805184825260208301602085012081835280955050505050506000915090508054610ee290611fcf565b80601f0160208091040260200160405190810160405280929190818152602001828054610f0e90611fcf565b8015610f5b5780601f10610f3057610100808354040283529160200191610f5b565b820191906000526020600020905b815481529060010190602001808311610f3e57829003601f168201915b505050505081565b600081805160208101820180518482526020830160208501208183528095505050505050600091509050806000018054610f9c90611fcf565b80601f0160208091040260200160405190810160405280929190818152602001828054610fc890611fcf565b80156110155780601f10610fea57610100808354040283529160200191611015565b820191906000526020600020905b815481529060010190602001808311610ff857829003601f168201915b5050505050908060010160009054906101000a900473ffffffffffffffffffffffffffffffffffffffff16908060010160149054906101000a900460ff16908060020154905084565b6000808260405161106f9190611d81565b908152602001604051809103902090508060010160009054906101000a900473ffffffffffffffffffffffffffffffffffffffff1673ffffffffffffffffffffffffffffffffffffffff163373ffffffffffffffffffffffffffffffffffffffff1614611111576040517f08c379a000000000000000000000000000000000000000000000000000000000815260040161110890612383565b60405180910390fd5b8060010160149054906101000a900460ff1615611163576040517f08c379a000000000000000000000000000000000000000000000000000000000815260040161115a90612415565b60405180910390fd5b6040518060200160405280600081525081600001908051906020019061118a92919061154e565b5060008160010160006101000a81548173ffffffffffffffffffffffffffffffffffffffff021916908373ffffffffffffffffffffffffffffffffffffffff16021790555060008160010160146101000a81548160ff0219169083151502179055506000816002018190555060005b8160020154811015611258578160030160008281526020019081526020016000206000808201600061122b9190611661565b60018201600061123b9190611661565b60028201600090555050808061125090611f57565b9150506111f9565b506000826040516112699190611d81565b9081526020016040518091039020600080820160006112889190611661565b6001820160006101000a81549073ffffffffffffffffffffffffffffffffffffffff02191690556001820160146101000a81549060ff0219169055600282016000905550505050565b606080600080846040516112e59190611d81565b9081526020016040518091039020905060008160020154905060008167ffffffffffffffff81111561131a576113196116ed565b5b60405190808252806020026020018201604052801561134d57816020015b60608152602001906001900390816113385790505b50905060008267ffffffffffffffff81111561136c5761136b6116ed565b5b60405190808252806020026020018201604052801561139f57816020015b606081526020019060019003908161138a5790505b50905060005b8381101561153e5784600301600082815260200190815260200160002060000180546113d090611fcf565b80601f01602080910402602001604051908101604052809291908181526020018280546113fc90611fcf565b80156114495780601f1061141e57610100808354040283529160200191611449565b820191906000526020600020905b81548152906001019060200180831161142c57829003601f168201915b505050505083828151811061146157611460612435565b5b6020026020010181905250846003016000828152602001908152602001600020600101805461148f90611fcf565b80601f01602080910402602001604051908101604052809291908181526020018280546114bb90611fcf565b80156115085780601f106114dd57610100808354040283529160200191611508565b820191906000526020600020905b8154815290600101906020018083116114eb57829003601f168201915b50505050508282815181106115205761151f612435565b5b6020026020010181905250808061153690611f57565b9150506113a5565b5081819550955050505050915091565b82805461155a90611fcf565b90600052602060002090601f01602090048101928261157c57600085556115c3565b82601f1061159557805160ff19168380011785556115c3565b828001600101855582156115c3579182015b828111156115c25782518255916020019190600101906115a7565b5b5090506115d091906116a1565b5090565b8280546115e090611fcf565b90600052602060002090601f0160209004810192826116025760008555611650565b82601f106116135780548555611650565b8280016001018555821561165057600052602060002091601f016020900482015b8281111561164f578254825591600101919060010190611634565b5b50905061165d91906116a1565b5090565b50805461166d90611fcf565b6000825580601f1061167f575061169e565b601f01602090049060005260206000209081019061169d91906116a1565b5b50565b5b808211156116ba5760008160009055506001016116a2565b5090565b6000604051905090565b600080fd5b600080fd5b600080fd5b600080fd5b6000601f19601f8301169050919050565b7f4e487b7100000000000000000000000000000000000000000000000000000000600052604160045260246000fd5b611725826116dc565b810181811067ffffffffffffffff82111715611744576117436116ed565b5b80604052505050565b60006117576116be565b9050611763828261171c565b919050565b600067ffffffffffffffff821115611783576117826116ed565b5b61178c826116dc565b9050602081019050919050565b82818337600083830152505050565b60006117bb6117b684611768565b61174d565b9050828152602081018484840111156117d7576117d66116d7565b5b6117e2848285611799565b509392505050565b600082601f8301126117ff576117fe6116d2565b5b813561180f8482602086016117a8565b91505092915050565b60006020828403121561182e5761182d6116c8565b5b600082013567ffffffffffffffff81111561184c5761184b6116cd565b5b611858848285016117ea565b91505092915050565b600081519050919050565b600082825260208201905092915050565b60005b8381101561189b578082015181840152602081019050611880565b838111156118aa576000848401525b50505050565b60006118bb82611861565b6118c5818561186c565b93506118d581856020860161187d565b6118de816116dc565b840191505092915050565b6000604082019050818103600083015261190381856118b0565b9050818103602083015261191781846118b0565b90509392505050565b6000819050919050565b61193381611920565b811461193e57600080fd5b50565b6000813590506119508161192a565b92915050565b6000806040838503121561196d5761196c6116c8565b5b600083013567ffffffffffffffff81111561198b5761198a6116cd565b5b611997858286016117ea565b92505060206119a885828601611941565b9150509250929050565b6000806000606084860312156119cb576119ca6116c8565b5b600084013567ffffffffffffffff8111156119e9576119e86116cd565b5b6119f5868287016117ea565b935050602084013567ffffffffffffffff811115611a1657611a156116cd565b5b611a22868287016117ea565b9250506040611a3386828701611941565b9150509250925092565b611a4681611920565b82525050565b60006060820190508181036000830152611a6681866118b0565b90508181036020830152611a7a81856118b0565b9050611a896040830184611a3d565b949350505050565b600073ffffffffffffffffffffffffffffffffffffffff82169050919050565b6000611abc82611a91565b9050919050565b611acc81611ab1565b82525050565b60008115159050919050565b611ae781611ad2565b82525050565b60006080820190508181036000830152611b0781876118b0565b9050611b166020830186611ac3565b611b236040830185611ade565b611b306060830184611a3d565b95945050505050565b600080600060608486031215611b5257611b516116c8565b5b600084013567ffffffffffffffff811115611b7057611b6f6116cd565b5b611b7c868287016117ea565b935050602084013567ffffffffffffffff811115611b9d57611b9c6116cd565b5b611ba9868287016117ea565b925050604084013567ffffffffffffffff811115611bca57611bc96116cd565b5b611bd6868287016117ea565b9150509250925092565b60006020820190508181036000830152611bfa81846118b0565b905092915050565b600081519050919050565b600082825260208201905092915050565b6000819050602082019050919050565b600082825260208201905092915050565b6000611c4a82611861565b611c548185611c2e565b9350611c6481856020860161187d565b611c6d816116dc565b840191505092915050565b6000611c848383611c3f565b905092915050565b6000602082019050919050565b6000611ca482611c02565b611cae8185611c0d565b935083602082028501611cc085611c1e565b8060005b85811015611cfc5784840389528151611cdd8582611c78565b9450611ce883611c8c565b925060208a01995050600181019050611cc4565b50829750879550505050505092915050565b60006040820190508181036000830152611d288185611c99565b90508181036020830152611d3c8184611c99565b90509392505050565b600081905092915050565b6000611d5b82611861565b611d658185611d45565b9350611d7581856020860161187d565b80840191505092915050565b6000611d8d8284611d50565b915081905092915050565b7f42616c6c6f7420666f722074686973206369747920616c72656164792065786960008201527f7374730000000000000000000000000000000000000000000000000000000000602082015250565b6000611df460238361186c565b9150611dff82611d98565b604082019050919050565b60006020820190508181036000830152611e2381611de7565b9050919050565b7f42616c6c6f7420697320616c726561647920636c6f7365640000000000000000600082015250565b6000611e6060188361186c565b9150611e6b82611e2a565b602082019050919050565b60006020820190508181036000830152611e8f81611e53565b9050919050565b7f456c656374696f6e206973207374696c6c206f70656e2c206e6f2077696e6e6560008201527f7220796574000000000000000000000000000000000000000000000000000000602082015250565b6000611ef260258361186c565b9150611efd82611e96565b604082019050919050565b60006020820190508181036000830152611f2181611ee5565b9050919050565b7f4e487b7100000000000000000000000000000000000000000000000000000000600052601160045260246000fd5b6000611f6282611920565b91507fffffffffffffffffffffffffffffffffffffffffffffffffffffffffffffffff821415611f9557611f94611f28565b5b600182019050919050565b7f4e487b7100000000000000000000000000000000000000000000000000000000600052602260045260246000fd5b60006002820490506001821680611fe757607f821691505b60208210811415611ffb57611ffa611fa0565b5b50919050565b7f496e76616c69642063616e64696461746520696e646578000000000000000000600082015250565b600061203760178361186c565b915061204282612001565b602082019050919050565b600060208201905081810360008301526120668161202a565b9050919050565b7f42616c6c6f7420697320636c6f73656400000000000000000000000000000000600082015250565b60006120a360108361186c565b91506120ae8261206d565b602082019050919050565b600060208201905081810360008301526120d281612096565b9050919050565b60006120e482611920565b91506120ef83611920565b92508282101561210257612101611f28565b5b828203905092915050565b600061211882611920565b9150600082141561212c5761212b611f28565b5b600182039050919050565b7f596f75206861766520616c726561647920766f7465642077697468207468697360008201527f20766f7465722049440000000000000000000000000000000000000000000000602082015250565b600061219360298361186c565b915061219e82612137565b604082019050919050565b600060208201905081810360008301526121c281612186565b9050919050565b600081905092915050565b60008190508160005260206000209050919050565b600081546121f681611fcf565b61220081866121c9565b9450600182166000811461221b576001811461222c5761225f565b60ff1983168652818601935061225f565b612235856121d4565b60005b8381101561225757815481890152600182019150602081019050612238565b838801955050505b50505092915050565b600061227482846121e9565b915081905092915050565b7f596f75206861766520616c726561647920766f74656420696e2061206469666660008201527f6572656e74206369747900000000000000000000000000000000000000000000602082015250565b60006122db602a8361186c565b91506122e68261227f565b604082019050919050565b6000602082019050818103600083015261230a816122ce565b9050919050565b7f4f6e6c79207468652061646d696e2063616e2064656c6574652074686520626160008201527f6c6c6f7400000000000000000000000000000000000000000000000000000000602082015250565b600061236d60248361186c565b915061237882612311565b604082019050919050565b6000602082019050818103600083015261239c81612360565b9050919050565b7f42616c6c6f74206d75737420626520636c6f736564206265666f72652064656c60008201527f6574696e67000000000000000000000000000000000000000000000000000000602082015250565b60006123ff60258361186c565b915061240a826123a3565b604082019050919050565b6000602082019050818103600083015261242e816123f2565b9050919050565b7f4e487b7100000000000000000000000000000000000000000000000000000000600052603260045260246000fdfea2646970667358221220c2c6e3f28f34427d5cc4ec376411c862425c627049bb51149ab7f4b78d57baab64736f6c63430008090033",
  "linkReferences": {},
  "deployedLinkReferences": {}
}