{
  "_format": "hh-sol-artifact-1",
  "contractName": "EVoting",
  "sourceName": "contracts/EVoting.sol",
  "abi": [
    {
      "inputs": [],
      "stateMutability": "nonpayable",
      "type": "constructor"
    },
    {
      "inputs": [
        {
          "internalType": "string",
          "name": "_city",
          "type": "string"
        },
        {
          "internalType": "string",
          "name": "_name",
          "type": "string"
        },
        {
          "internalType": "string",
          "name": "_party",
          "type": "string"
        }
      ],
      "name": "addCandidate",
      "outputs": [],
      "stateMutability": "nonpayable",
      "type": "function"
    },
    {
      "inputs": [
        {
          "internalType": "string",
          "name": "",
          "type": "string"
        }
      ],
      "name": "cityToBallot",
      "outputs": [
        {
          "internalType": "string",
          "name": "city",
          "type": "string"
        },
        {
          "internalType": "address",
          "name": "admin",
          "type": "address"
        },
        {
          "internalType": "bool",
          "name": "isOpen",
          "type": "bool"
        },
        {
          "internalType": "uint256",
          "name": "candidateCount",
          "type": "uint256"
        }
      ],
      "stateMutability": "view",
      "type": "function"
    },
    {
      "inputs": [
        {
          "internalType": "string",
          "name": "_city",
          "type": "string"
        }
      ],
      "name": "closeBallot",
      "outputs": [],
      "stateMutability": "nonpayable",
      "type": "function"
    },
    {
      "inputs": [
        {
          "internalType": "string",
          "name": "_city",
          "type": "string"
        }
      ],
      "name": "createBallot",
      "outputs": [],
      "stateMutability": "nonpayable",
      "type": "function"
    },
    {
      "inputs": [
        {
          "internalType": "string",
          "name": "_city",
          "type": "string"
        },
        {
          "internalType": "uint256",
          "name": "_candidateIndex",
          "type": "uint256"
        }
      ],
      "name": "deleteCandidate",
      "outputs": [],
      "stateMutability": "nonpayable",
      "type": "function"
    },
    {
      "inputs": [
        {
          "internalType": "string",
          "name": "_city",
          "type": "string"
        }
      ],
      "name": "getBallotDetails",
      "outputs": [
        {
          "internalType": "string",
          "name": "city",
          "type": "string"
        },
        {
          "internalType": "address",
          "name": "admin",
          "type": "address"
        },
        {
          "internalType": "bool",
          "name": "isOpen",
          "type": "bool"
        },
        {
          "internalType": "uint256",
          "name": "candidateCount",
          "type": "uint256"
        }
      ],
      "stateMutability": "view",
      "type": "function"
    },
    {
      "inputs": [
        {
          "internalType": "string",
          "name": "_city",
          "type": "string"
        },
        {
          "internalType": "uint256",
          "name": "_candidateIndex",
          "type": "uint256"
        }
      ],
      "name": "getCandidateDetails",
      "outputs": [
        {
          "internalType": "string",
          "name": "name",
          "type": "string"
        },
        {
          "internalType": "string",
          "name": "party",
          "type": "string"
        },
        {
          "internalType": "uint256",
          "name": "voteCount",
          "type": "uint256"
        }
      ],
      "stateMutability": "view",
      "type": "function"
    },
    {
      "inputs": [
        {
          "internalType": "string",
          "name": "_city",
          "type": "string"
        }
      ],
      "name": "getCandidatesInCity",
      "outputs": [
        {
          "internalType": "string[]",
          "name": "candidateNames",
          "type": "string[]"
        },
        {
          "internalType": "string[]",
          "name": "candidateParties",
          "type": "string[]"
        }
      ],
      "stateMutability": "view",
      "type": "function"
    },
    {
      "inputs": [
        {
          "internalType": "string",
          "name": "_city",
          "type": "string"
        }
      ],
      "name": "getResult",
      "outputs": [
        {
          "internalType": "string",
          "name": "winnerName",
          "type": "string"
        },
        {
          "internalType": "string",
          "name": "winnerParty",
          "type": "string"
        }
      ],
      "stateMutability": "view",
      "type": "function"
    },
    {
      "inputs": [
        {
          "internalType": "string",
          "name": "_city",
          "type": "string"
        }
      ],
      "name": "getVoteCounts",
      "outputs": [
        {
          "internalType": "uint256[]",
          "name": "voteCounts",
          "type": "uint256[]"
        }
      ],
      "stateMutability": "view",
      "type": "function"
    },
    {
      "inputs": [
        {
          "internalType": "string",
          "name": "_voterId",
          "type": "string"
        },
        {
          "internalType": "string",
          "name": "_city",
          "type": "string"
        },
        {
          "internalType": "uint256",
          "name": "_candidateIndex",
          "type": "uint256"
        }
      ],
      "name": "vote",
      "outputs": [],
      "stateMutability": "nonpayable",
      "type": "function"
    },
    {
      "inputs": [
        {
          "internalType": "string",
          "name": "",
          "type": "string"
        }
      ],
      "name": "voterToCity",
      "outputs": [
        {
          "internalType": "string",
          "name": "",
          "type": "string"
        }
      ],
      "stateMutability": "view",
      "type": "function"
    }
  ],
  "bytecode": "0x608060405234801561001057600080fd5b506122d2806100206000396000f3fe608060405234801561001057600080fd5b50600436106100b45760003560e01c80637af19264116100715780637af192641461018a5780638634602e146101bc578063ad71f8dc146101ef578063ad85a1ba1461020b578063beaef8871461023b578063ec42480c1461026e576100b4565b806346a86576146100b9578063492c9a1e146100d5578063498cc70d146100f15780636d3a4ff714610122578063769841ed146101525780637a4c96ad1461016e575b600080fd5b6100d360048036038101906100ce9190611694565b61029f565b005b6100ef60048036038101906100ea9190611694565b6103f7565b005b61010b60048036038101906101069190611694565b61048a565b604051610119929190611765565b60405180910390f35b61013c60048036038101906101379190611694565b6106b9565b6040516101499190611864565b60405180910390f35b61016c600480360381019061016791906118b2565b610794565b005b6101886004803603810190610183919061190e565b61095b565b005b6101a4600480360381019061019f91906118b2565b610bd1565b6040516101b3939291906119a8565b60405180910390f35b6101d660048036038101906101d19190611694565b610d8a565b6040516101e69493929190611a49565b60405180910390f35b61020960048036038101906102049190611a95565b610e8e565b005b61022560048036038101906102209190611694565b610f9c565b6040516102329190611b3c565b60405180910390f35b61025560048036038101906102509190611694565b611052565b6040516102659493929190611a49565b60405180910390f35b61028860048036038101906102839190611694565b61114d565b604051610296929190611c6a565b60405180910390f35b600073ffffffffffffffffffffffffffffffffffffffff166000826040516102c79190611cdd565b908152602001604051809103902060010160009054906101000a900473ffffffffffffffffffffffffffffffffffffffff1673ffffffffffffffffffffffffffffffffffffffff161461034f576040517f08c379a000000000000000000000000000000000000000000000000000000000815260040161034690611d66565b60405180910390fd5b600080826040516103609190611cdd565b90815260200160405180910390209050818160000190805190602001906103889291906113ca565b50338160010160006101000a81548173ffffffffffffffffffffffffffffffffffffffff021916908373ffffffffffffffffffffffffffffffffffffffff16021790555060018160010160146101000a81548160ff021916908315150217905550600081600201819055505050565b600080826040516104089190611cdd565b908152602001604051809103902090508060010160149054906101000a900460ff16610469576040517f08c379a000000000000000000000000000000000000000000000000000000000815260040161046090611dd2565b60405180910390fd5b60008160010160146101000a81548160ff0219169083151502179055505050565b6060806000808460405161049e9190611cdd565b908152602001604051809103902090508060010160149054906101000a900460ff1615610500576040517f08c379a00000000000000000000000000000000000000000000000000000000081526004016104f790611e64565b60405180910390fd5b60008060005b83600201548110156105645782846003016000838152602001908152602001600020600201541115610551578360030160008281526020019081526020016000206002015492508091505b808061055c90611eb3565b915050610506565b508260030160008281526020019081526020016000206000018360030160008381526020019081526020016000206001018180546105a190611f2b565b80601f01602080910402602001604051908101604052809291908181526020018280546105cd90611f2b565b801561061a5780601f106105ef5761010080835404028352916020019161061a565b820191906000526020600020905b8154815290600101906020018083116105fd57829003601f168201915b5050505050915080805461062d90611f2b565b80601f016020809104026020016040519081016040528092919081815260200182805461065990611f2b565b80156106a65780601f1061067b576101008083540402835291602001916106a6565b820191906000526020600020905b81548152906001019060200180831161068957829003601f168201915b5050505050905094509450505050915091565b6060600080836040516106cc9190611cdd565b9081526020016040518091039020905060008160020154905060008167ffffffffffffffff81111561070157610700611569565b5b60405190808252806020026020018201604052801561072f5781602001602082028036833780820191505090505b50905060005b82811015610788578360030160008281526020019081526020016000206002015482828151811061076957610768611f5d565b5b602002602001018181525050808061078090611eb3565b915050610735565b50809350505050919050565b600080836040516107a59190611cdd565b90815260200160405180910390209050806002015482106107fb576040517f08c379a00000000000000000000000000000000000000000000000000000000081526004016107f290611fd8565b60405180910390fd5b8060010160149054906101000a900460ff1661084c576040517f08c379a000000000000000000000000000000000000000000000000000000000815260040161084390612044565b60405180910390fd5b6001816002015461085d9190612064565b8210156108ec578060030160006001836002015461087b9190612064565b815260200190815260200160002081600301600084815260200190815260200160002060008201816000019080546108b290611f2b565b6108bd929190611450565b5060018201816001019080546108d290611f2b565b6108dd929190611450565b50600282015481600201559050505b806003016000600183600201546109039190612064565b81526020019081526020016000206000808201600061092291906114dd565b60018201600061093291906114dd565b6002820160009055505080600201600081548092919061095190612098565b9190505550505050565b6000808360405161096c9190611cdd565b90815260200160405180910390209050806002015482106109c2576040517f08c379a00000000000000000000000000000000000000000000000000000000081526004016109b990611fd8565b60405180910390fd5b8060010160149054906101000a900460ff16610a13576040517f08c379a0000000000000000000000000000000000000000000000000000000008152600401610a0a90612044565b60405180910390fd5b8060040184604051610a259190611cdd565b908152602001604051809103902060009054906101000a900460ff1615610a81576040517f08c379a0000000000000000000000000000000000000000000000000000000008152600401610a7890612134565b60405180910390fd5b6000600185604051610a939190611cdd565b90815260200160405180910390208054610aac90611f2b565b90501480610af257508280519060200120600185604051610acd9190611cdd565b9081526020016040518091039020604051610ae891906121f3565b6040518091039020145b610b31576040517f08c379a0000000000000000000000000000000000000000000000000000000008152600401610b289061227c565b60405180910390fd5b8060030160008381526020019081526020016000206002016000815480929190610b5a90611eb3565b919050555060018160040185604051610b739190611cdd565b908152602001604051809103902060006101000a81548160ff02191690831515021790555082600185604051610ba99190611cdd565b90815260200160405180910390209080519060200190610bca9291906113ca565b5050505050565b606080600080600086604051610be79190611cdd565b9081526020016040518091039020905080600201548510610c3d576040517f08c379a0000000000000000000000000000000000000000000000000000000008152600401610c3490611fd8565b60405180910390fd5b6000816003016000878152602001908152602001600020905080600001816001018260020154828054610c6f90611f2b565b80601f0160208091040260200160405190810160405280929190818152602001828054610c9b90611f2b565b8015610ce85780601f10610cbd57610100808354040283529160200191610ce8565b820191906000526020600020905b815481529060010190602001808311610ccb57829003601f168201915b50505050509250818054610cfb90611f2b565b80601f0160208091040260200160405190810160405280929190818152602001828054610d2790611f2b565b8015610d745780601f10610d4957610100808354040283529160200191610d74565b820191906000526020600020905b815481529060010190602001808311610d5757829003601f168201915b5050505050915094509450945050509250925092565b6060600080600080600086604051610da29190611cdd565b90815260200160405180910390209050806000018160010160009054906101000a900473ffffffffffffffffffffffffffffffffffffffff168260010160149054906101000a900460ff168360020154838054610dfe90611f2b565b80601f0160208091040260200160405190810160405280929190818152602001828054610e2a90611f2b565b8015610e775780601f10610e4c57610100808354040283529160200191610e77565b820191906000526020600020905b815481529060010190602001808311610e5a57829003601f168201915b505050505093509450945094509450509193509193565b60008084604051610e9f9190611cdd565b908152602001604051809103902090508060010160149054906101000a900460ff16610f00576040517f08c379a0000000000000000000000000000000000000000000000000000000008152600401610ef790612044565b60405180910390fd5b60405180606001604052808481526020018381526020016000815250816003016000836002015481526020019081526020016000206000820151816000019080519060200190610f519291906113ca565b506020820151816001019080519060200190610f6e9291906113ca565b5060408201518160020155905050806002016000815480929190610f9190611eb3565b919050555050505050565b6001818051602081018201805184825260208301602085012081835280955050505050506000915090508054610fd190611f2b565b80601f0160208091040260200160405190810160405280929190818152602001828054610ffd90611f2b565b801561104a5780601f1061101f5761010080835404028352916020019161104a565b820191906000526020600020905b81548152906001019060200180831161102d57829003601f168201915b505050505081565b60008180516020810182018051848252602083016020850120818352809550505050505060009150905080600001805461108b90611f2b565b80601f01602080910402602001604051908101604052809291908181526020018280546110b790611f2b565b80156111045780601f106110d957610100808354040283529160200191611104565b820191906000526020600020905b8154815290600101906020018083116110e757829003601f168201915b5050505050908060010160009054906101000a900473ffffffffffffffffffffffffffffffffffffffff16908060010160149054906101000a900460ff16908060020154905084565b606080600080846040516111619190611cdd565b9081526020016040518091039020905060008160020154905060008167ffffffffffffffff81111561119657611195611569565b5b6040519080825280602002602001820160405280156111c957816020015b60608152602001906001900390816111b45790505b50905060008267ffffffffffffffff8111156111e8576111e7611569565b5b60405190808252806020026020018201604052801561121b57816020015b60608152602001906001900390816112065790505b50905060005b838110156113ba57846003016000828152602001908152602001600020600001805461124c90611f2b565b80601f016020809104026020016040519081016040528092919081815260200182805461127890611f2b565b80156112c55780601f1061129a576101008083540402835291602001916112c5565b820191906000526020600020905b8154815290600101906020018083116112a857829003601f168201915b50505050508382815181106112dd576112dc611f5d565b5b6020026020010181905250846003016000828152602001908152602001600020600101805461130b90611f2b565b80601f016020809104026020016040519081016040528092919081815260200182805461133790611f2b565b80156113845780601f1061135957610100808354040283529160200191611384565b820191906000526020600020905b81548152906001019060200180831161136757829003601f168201915b505050505082828151811061139c5761139b611f5d565b5b602002602001018190525080806113b290611eb3565b915050611221565b5081819550955050505050915091565b8280546113d690611f2b565b90600052602060002090601f0160209004810192826113f8576000855561143f565b82601f1061141157805160ff191683800117855561143f565b8280016001018555821561143f579182015b8281111561143e578251825591602001919060010190611423565b5b50905061144c919061151d565b5090565b82805461145c90611f2b565b90600052602060002090601f01602090048101928261147e57600085556114cc565b82601f1061148f57805485556114cc565b828001600101855582156114cc57600052602060002091601f016020900482015b828111156114cb5782548255916001019190600101906114b0565b5b5090506114d9919061151d565b5090565b5080546114e990611f2b565b6000825580601f106114fb575061151a565b601f016020900490600052602060002090810190611519919061151d565b5b50565b5b8082111561153657600081600090555060010161151e565b5090565b6000604051905090565b600080fd5b600080fd5b600080fd5b600080fd5b6000601f19601f8301169050919050565b7f4e487b7100000000000000000000000000000000000000000000000000000000600052604160045260246000fd5b6115a182611558565b810181811067ffffffffffffffff821117156115c0576115bf611569565b5b80604052505050565b60006115d361153a565b90506115df8282611598565b919050565b600067ffffffffffffffff8211156115ff576115fe611569565b5b61160882611558565b9050602081019050919050565b82818337600083830152505050565b6000611637611632846115e4565b6115c9565b90508281526020810184848401111561165357611652611553565b5b61165e848285611615565b509392505050565b600082601f83011261167b5761167a61154e565b5b813561168b848260208601611624565b91505092915050565b6000602082840312156116aa576116a9611544565b5b600082013567ffffffffffffffff8111156116c8576116c7611549565b5b6116d484828501611666565b91505092915050565b600081519050919050565b600082825260208201905092915050565b60005b838110156117175780820151818401526020810190506116fc565b83811115611726576000848401525b50505050565b6000611737826116dd565b61174181856116e8565b93506117518185602086016116f9565b61175a81611558565b840191505092915050565b6000604082019050818103600083015261177f818561172c565b90508181036020830152611793818461172c565b90509392505050565b600081519050919050565b600082825260208201905092915050565b6000819050602082019050919050565b6000819050919050565b6117db816117c8565b82525050565b60006117ed83836117d2565b60208301905092915050565b6000602082019050919050565b60006118118261179c565b61181b81856117a7565b9350611826836117b8565b8060005b8381101561185757815161183e88826117e1565b9750611849836117f9565b92505060018101905061182a565b5085935050505092915050565b6000602082019050818103600083015261187e8184611806565b905092915050565b61188f816117c8565b811461189a57600080fd5b50565b6000813590506118ac81611886565b92915050565b600080604083850312156118c9576118c8611544565b5b600083013567ffffffffffffffff8111156118e7576118e6611549565b5b6118f385828601611666565b92505060206119048582860161189d565b9150509250929050565b60008060006060848603121561192757611926611544565b5b600084013567ffffffffffffffff81111561194557611944611549565b5b61195186828701611666565b935050602084013567ffffffffffffffff81111561197257611971611549565b5b61197e86828701611666565b925050604061198f8682870161189d565b9150509250925092565b6119a2816117c8565b82525050565b600060608201905081810360008301526119c2818661172c565b905081810360208301526119d6818561172c565b90506119e56040830184611999565b949350505050565b600073ffffffffffffffffffffffffffffffffffffffff82169050919050565b6000611a18826119ed565b9050919050565b611a2881611a0d565b82525050565b60008115159050919050565b611a4381611a2e565b82525050565b60006080820190508181036000830152611a63818761172c565b9050611a726020830186611a1f565b611a7f6040830185611a3a565b611a8c6060830184611999565b95945050505050565b600080600060608486031215611aae57611aad611544565b5b600084013567ffffffffffffffff811115611acc57611acb611549565b5b611ad886828701611666565b935050602084013567ffffffffffffffff811115611af957611af8611549565b5b611b0586828701611666565b925050604084013567ffffffffffffffff811115611b2657611b25611549565b5b611b3286828701611666565b9150509250925092565b60006020820190508181036000830152611b56818461172c565b905092915050565b600081519050919050565b600082825260208201905092915050565b6000819050602082019050919050565b600082825260208201905092915050565b6000611ba6826116dd565b611bb08185611b8a565b9350611bc08185602086016116f9565b611bc981611558565b840191505092915050565b6000611be08383611b9b565b905092915050565b6000602082019050919050565b6000611c0082611b5e565b611c0a8185611b69565b935083602082028501611c1c85611b7a565b8060005b85811015611c585784840389528151611c398582611bd4565b9450611c4483611be8565b925060208a01995050600181019050611c20565b50829750879550505050505092915050565b60006040820190508181036000830152611c848185611bf5565b90508181036020830152611c988184611bf5565b90509392505050565b600081905092915050565b6000611cb7826116dd565b611cc18185611ca1565b9350611cd18185602086016116f9565b80840191505092915050565b6000611ce98284611cac565b915081905092915050565b7f42616c6c6f7420666f722074686973206369747920616c72656164792065786960008201527f7374730000000000000000000000000000000000000000000000000000000000602082015250565b6000611d506023836116e8565b9150611d5b82611cf4565b604082019050919050565b60006020820190508181036000830152611d7f81611d43565b9050919050565b7f42616c6c6f7420697320616c726561647920636c6f7365640000000000000000600082015250565b6000611dbc6018836116e8565b9150611dc782611d86565b602082019050919050565b60006020820190508181036000830152611deb81611daf565b9050919050565b7f456c656374696f6e206973207374696c6c206f70656e2c206e6f2077696e6e6560008201527f7220796574000000000000000000000000000000000000000000000000000000602082015250565b6000611e4e6025836116e8565b9150611e5982611df2565b604082019050919050565b60006020820190508181036000830152611e7d81611e41565b9050919050565b7f4e487b7100000000000000000000000000000000000000000000000000000000600052601160045260246000fd5b6000611ebe826117c8565b91507fffffffffffffffffffffffffffffffffffffffffffffffffffffffffffffffff821415611ef157611ef0611e84565b5b600182019050919050565b7f4e487b7100000000000000000000000000000000000000000000000000000000600052602260045260246000fd5b60006002820490506001821680611f4357607f821691505b60208210811415611f5757611f56611efc565b5b50919050565b7f4e487b7100000000000000000000000000000000000000000000000000000000600052603260045260246000fd5b7f496e76616c69642063616e64696461746520696e646578000000000000000000600082015250565b6000611fc26017836116e8565b9150611fcd82611f8c565b602082019050919050565b60006020820190508181036000830152611ff181611fb5565b9050919050565b7f42616c6c6f7420697320636c6f73656400000000000000000000000000000000600082015250565b600061202e6010836116e8565b915061203982611ff8565b602082019050919050565b6000602082019050818103600083015261205d81612021565b9050919050565b600061206f826117c8565b915061207a836117c8565b92508282101561208d5761208c611e84565b5b828203905092915050565b60006120a3826117c8565b915060008214156120b7576120b6611e84565b5b600182039050919050565b7f596f75206861766520616c726561647920766f7465642077697468207468697360008201527f20766f7465722049440000000000000000000000000000000000000000000000602082015250565b600061211e6029836116e8565b9150612129826120c2565b604082019050919050565b6000602082019050818103600083015261214d81612111565b9050919050565b600081905092915050565b60008190508160005260206000209050919050565b6000815461218181611f2b565b61218b8186612154565b945060018216600081146121a657600181146121b7576121ea565b60ff198316865281860193506121ea565b6121c08561215f565b60005b838110156121e2578154818901526001820191506020810190506121c3565b838801955050505b50505092915050565b60006121ff8284612174565b915081905092915050565b7f596f75206861766520616c726561647920766f74656420696e2061206469666660008201527f6572656e74206369747900000000000000000000000000000000000000000000602082015250565b6000612266602a836116e8565b91506122718261220a565b604082019050919050565b6000602082019050818103600083015261229581612259565b905091905056fea264697066735822122095aae6e9d7428befb59e033f52957227bacb89b80657b16c928c903597ff55e564736f6c63430008090033",
  "linkReferences": {},
  "deployedLinkReferences": {}
}